{
    "contractName": "TOKEN",
    "abi": [
        {
            "inputs": [],
            "stateMutability": "nonpayable",
            "type": "constructor"
        },
        {
            "anonymous": false,
            "inputs": [
                {
                    "indexed": true,
                    "internalType": "address",
                    "name": "owner",
                    "type": "address"
                },
                {
                    "indexed": true,
                    "internalType": "address",
                    "name": "spender",
                    "type": "address"
                },
                {
                    "indexed": false,
                    "internalType": "uint256",
                    "name": "value",
                    "type": "uint256"
                }
            ],
            "name": "Approval",
            "type": "event"
        },
        {
            "anonymous": false,
            "inputs": [
                {
                    "indexed": true,
                    "internalType": "bytes32",
                    "name": "role",
                    "type": "bytes32"
                },
                {
                    "indexed": true,
                    "internalType": "bytes32",
                    "name": "previousAdminRole",
                    "type": "bytes32"
                },
                {
                    "indexed": true,
                    "internalType": "bytes32",
                    "name": "newAdminRole",
                    "type": "bytes32"
                }
            ],
            "name": "RoleAdminChanged",
            "type": "event"
        },
        {
            "anonymous": false,
            "inputs": [
                {
                    "indexed": true,
                    "internalType": "bytes32",
                    "name": "role",
                    "type": "bytes32"
                },
                {
                    "indexed": true,
                    "internalType": "address",
                    "name": "account",
                    "type": "address"
                },
                {
                    "indexed": true,
                    "internalType": "address",
                    "name": "sender",
                    "type": "address"
                }
            ],
            "name": "RoleGranted",
            "type": "event"
        },
        {
            "anonymous": false,
            "inputs": [
                {
                    "indexed": true,
                    "internalType": "bytes32",
                    "name": "role",
                    "type": "bytes32"
                },
                {
                    "indexed": true,
                    "internalType": "address",
                    "name": "account",
                    "type": "address"
                },
                {
                    "indexed": true,
                    "internalType": "address",
                    "name": "sender",
                    "type": "address"
                }
            ],
            "name": "RoleRevoked",
            "type": "event"
        },
        {
            "anonymous": false,
            "inputs": [
                {
                    "indexed": true,
                    "internalType": "address",
                    "name": "from",
                    "type": "address"
                },
                {
                    "indexed": true,
                    "internalType": "address",
                    "name": "to",
                    "type": "address"
                },
                {
                    "indexed": false,
                    "internalType": "uint256",
                    "name": "value",
                    "type": "uint256"
                }
            ],
            "name": "Transfer",
            "type": "event"
        },
        {
            "inputs": [],
            "name": "DEFAULT_ADMIN_ROLE",
            "outputs": [
                {
                    "internalType": "bytes32",
                    "name": "",
                    "type": "bytes32"
                }
            ],
            "stateMutability": "view",
            "type": "function"
        },
        {
            "inputs": [],
            "name": "MINTER_ROLE",
            "outputs": [
                {
                    "internalType": "bytes32",
                    "name": "",
                    "type": "bytes32"
                }
            ],
            "stateMutability": "view",
            "type": "function"
        },
        {
            "inputs": [
                {
                    "internalType": "address",
                    "name": "owner",
                    "type": "address"
                },
                {
                    "internalType": "address",
                    "name": "spender",
                    "type": "address"
                }
            ],
            "name": "allowance",
            "outputs": [
                {
                    "internalType": "uint256",
                    "name": "",
                    "type": "uint256"
                }
            ],
            "stateMutability": "view",
            "type": "function"
        },
        {
            "inputs": [
                {
                    "internalType": "address",
                    "name": "spender",
                    "type": "address"
                },
                {
                    "internalType": "uint256",
                    "name": "amount",
                    "type": "uint256"
                }
            ],
            "name": "approve",
            "outputs": [
                {
                    "internalType": "bool",
                    "name": "",
                    "type": "bool"
                }
            ],
            "stateMutability": "nonpayable",
            "type": "function"
        },
        {
            "inputs": [
                {
                    "internalType": "address",
                    "name": "account",
                    "type": "address"
                }
            ],
            "name": "balanceOf",
            "outputs": [
                {
                    "internalType": "uint256",
                    "name": "",
                    "type": "uint256"
                }
            ],
            "stateMutability": "view",
            "type": "function"
        },
        {
            "inputs": [],
            "name": "cap",
            "outputs": [
                {
                    "internalType": "uint256",
                    "name": "",
                    "type": "uint256"
                }
            ],
            "stateMutability": "view",
            "type": "function"
        },
        {
            "inputs": [],
            "name": "decimals",
            "outputs": [
                {
                    "internalType": "uint8",
                    "name": "",
                    "type": "uint8"
                }
            ],
            "stateMutability": "view",
            "type": "function"
        },
        {
            "inputs": [
                {
                    "internalType": "address",
                    "name": "spender",
                    "type": "address"
                },
                {
                    "internalType": "uint256",
                    "name": "subtractedValue",
                    "type": "uint256"
                }
            ],
            "name": "decreaseAllowance",
            "outputs": [
                {
                    "internalType": "bool",
                    "name": "",
                    "type": "bool"
                }
            ],
            "stateMutability": "nonpayable",
            "type": "function"
        },
        {
            "inputs": [
                {
                    "internalType": "bytes32",
                    "name": "role",
                    "type": "bytes32"
                }
            ],
            "name": "getRoleAdmin",
            "outputs": [
                {
                    "internalType": "bytes32",
                    "name": "",
                    "type": "bytes32"
                }
            ],
            "stateMutability": "view",
            "type": "function"
        },
        {
            "inputs": [
                {
                    "internalType": "bytes32",
                    "name": "role",
                    "type": "bytes32"
                },
                {
                    "internalType": "address",
                    "name": "account",
                    "type": "address"
                }
            ],
            "name": "grantRole",
            "outputs": [],
            "stateMutability": "nonpayable",
            "type": "function"
        },
        {
            "inputs": [
                {
                    "internalType": "bytes32",
                    "name": "role",
                    "type": "bytes32"
                },
                {
                    "internalType": "address",
                    "name": "account",
                    "type": "address"
                }
            ],
            "name": "hasRole",
            "outputs": [
                {
                    "internalType": "bool",
                    "name": "",
                    "type": "bool"
                }
            ],
            "stateMutability": "view",
            "type": "function"
        },
        {
            "inputs": [
                {
                    "internalType": "address",
                    "name": "spender",
                    "type": "address"
                },
                {
                    "internalType": "uint256",
                    "name": "addedValue",
                    "type": "uint256"
                }
            ],
            "name": "increaseAllowance",
            "outputs": [
                {
                    "internalType": "bool",
                    "name": "",
                    "type": "bool"
                }
            ],
            "stateMutability": "nonpayable",
            "type": "function"
        },
        {
            "inputs": [
                {
                    "internalType": "address",
                    "name": "_to",
                    "type": "address"
                },
                {
                    "internalType": "uint256",
                    "name": "_amount",
                    "type": "uint256"
                }
            ],
            "name": "mint",
            "outputs": [],
            "stateMutability": "nonpayable",
            "type": "function"
        },
        {
            "inputs": [],
            "name": "name",
            "outputs": [
                {
                    "internalType": "string",
                    "name": "",
                    "type": "string"
                }
            ],
            "stateMutability": "view",
            "type": "function"
        },
        {
            "inputs": [
                {
                    "internalType": "bytes32",
                    "name": "role",
                    "type": "bytes32"
                },
                {
                    "internalType": "address",
                    "name": "account",
                    "type": "address"
                }
            ],
            "name": "renounceRole",
            "outputs": [],
            "stateMutability": "nonpayable",
            "type": "function"
        },
        {
            "inputs": [
                {
                    "internalType": "bytes32",
                    "name": "role",
                    "type": "bytes32"
                },
                {
                    "internalType": "address",
                    "name": "account",
                    "type": "address"
                }
            ],
            "name": "revokeRole",
            "outputs": [],
            "stateMutability": "nonpayable",
            "type": "function"
        },
        {
            "inputs": [
                {
                    "internalType": "bytes4",
                    "name": "interfaceId",
                    "type": "bytes4"
                }
            ],
            "name": "supportsInterface",
            "outputs": [
                {
                    "internalType": "bool",
                    "name": "",
                    "type": "bool"
                }
            ],
            "stateMutability": "view",
            "type": "function"
        },
        {
            "inputs": [],
            "name": "symbol",
            "outputs": [
                {
                    "internalType": "string",
                    "name": "",
                    "type": "string"
                }
            ],
            "stateMutability": "view",
            "type": "function"
        },
        {
            "inputs": [],
            "name": "totalSupply",
            "outputs": [
                {
                    "internalType": "uint256",
                    "name": "",
                    "type": "uint256"
                }
            ],
            "stateMutability": "view",
            "type": "function"
        },
        {
            "inputs": [
                {
                    "internalType": "address",
                    "name": "recipient",
                    "type": "address"
                },
                {
                    "internalType": "uint256",
                    "name": "amount",
                    "type": "uint256"
                }
            ],
            "name": "transfer",
            "outputs": [
                {
                    "internalType": "bool",
                    "name": "",
                    "type": "bool"
                }
            ],
            "stateMutability": "nonpayable",
            "type": "function"
        },
        {
            "inputs": [
                {
                    "internalType": "address",
                    "name": "sender",
                    "type": "address"
                },
                {
                    "internalType": "address",
                    "name": "recipient",
                    "type": "address"
                },
                {
                    "internalType": "uint256",
                    "name": "amount",
                    "type": "uint256"
                }
            ],
            "name": "transferFrom",
            "outputs": [
                {
                    "internalType": "bool",
                    "name": "",
                    "type": "bool"
                }
            ],
            "stateMutability": "nonpayable",
            "type": "function"
        }
    ],
    "bytecode": "60806040526a52b7d2dcc80cd2e40000006006553480156200002057600080fd5b50604080518082018252600a815269544f4b454e204e414d4560b01b6020808301918252835180850190945260068452652a24a1a5a2a960d11b90840152815191929162000071916004916200017b565b508051620000879060059060208401906200017b565b506200009991506000905033620000cb565b620000c57f9f2df0fed2c77648de5860a4cc508cd0818c85b8b8a1ab4ceeef8d981c8956a633620000cb565b6200025e565b620000d78282620000db565b5050565b6000828152602081815260408083206001600160a01b038516845290915290205460ff16620000d7576000828152602081815260408083206001600160a01b03851684529091529020805460ff19166001179055620001373390565b6001600160a01b0316816001600160a01b0316837f2f8788117e7eff1d82e926ec794901d17c78024a50270940304540a733656f0d60405160405180910390a45050565b828054620001899062000221565b90600052602060002090601f016020900481019282620001ad5760008555620001f8565b82601f10620001c857805160ff1916838001178555620001f8565b82800160010185558215620001f8579182015b82811115620001f8578251825591602001919060010190620001db565b50620002069291506200020a565b5090565b5b808211156200020657600081556001016200020b565b600181811c908216806200023657607f821691505b602082108114156200025857634e487b7160e01b600052602260045260246000fd5b50919050565b61116d806200026e6000396000f3fe608060405234801561001057600080fd5b50600436106101375760003560e01c806339509351116100b8578063a217fddf1161007c578063a217fddf1461027d578063a457c2d714610285578063a9059cbb14610298578063d5391393146102ab578063d547741f146102d2578063dd62ed3e146102e557600080fd5b8063395093511461021357806340c10f191461022657806370a082311461023957806391d148541461026257806395d89b411461027557600080fd5b8063248a9ca3116100ff578063248a9ca3146101b15780632f2ff15d146101d4578063313ce567146101e9578063355274ea146101f857806336568abe1461020057600080fd5b806301ffc9a71461013c57806306fdde0314610164578063095ea7b31461017957806318160ddd1461018c57806323b872dd1461019e575b600080fd5b61014f61014a366004610f6e565b61031e565b60405190151581526020015b60405180910390f35b61016c610355565b60405161015b919061100d565b61014f610187366004610f08565b6103e7565b6003545b60405190815260200161015b565b61014f6101ac366004610ecc565b6103fd565b6101906101bf366004610f32565b60009081526020819052604090206001015490565b6101e76101e2366004610f4b565b6104ac565b005b6040516012815260200161015b565b600654610190565b6101e761020e366004610f4b565b6104d7565b61014f610221366004610f08565b610555565b6101e7610234366004610f08565b610591565b610190610247366004610e7e565b6001600160a01b031660009081526001602052604090205490565b61014f610270366004610f4b565b610611565b61016c61063a565b610190600081565b61014f610293366004610f08565b610649565b61014f6102a6366004610f08565b6106e2565b6101907f9f2df0fed2c77648de5860a4cc508cd0818c85b8b8a1ab4ceeef8d981c8956a681565b6101e76102e0366004610f4b565b6106ef565b6101906102f3366004610e99565b6001600160a01b03918216600090815260026020908152604080832093909416825291909152205490565b60006001600160e01b03198216637965db0b60e01b148061034f57506301ffc9a760e01b6001600160e01b03198316145b92915050565b606060048054610364906110ba565b80601f0160208091040260200160405190810160405280929190818152602001828054610390906110ba565b80156103dd5780601f106103b2576101008083540402835291602001916103dd565b820191906000526020600020905b8154815290600101906020018083116103c057829003601f168201915b5050505050905090565b60006103f4338484610715565b50600192915050565b600061040a848484610839565b6001600160a01b0384166000908152600260209081526040808320338452909152902054828110156104945760405162461bcd60e51b815260206004820152602860248201527f45524332303a207472616e7366657220616d6f756e74206578636565647320616044820152676c6c6f77616e636560c01b60648201526084015b60405180910390fd5b6104a18533858403610715565b506001949350505050565b6000828152602081905260409020600101546104c88133610a14565b6104d28383610a78565b505050565b6001600160a01b03811633146105475760405162461bcd60e51b815260206004820152602f60248201527f416363657373436f6e74726f6c3a2063616e206f6e6c792072656e6f756e636560448201526e103937b632b9903337b91039b2b63360891b606482015260840161048b565b6105518282610afc565b5050565b3360008181526002602090815260408083206001600160a01b038716845290915281205490916103f491859061058c908690611040565b610715565b6105bb7f9f2df0fed2c77648de5860a4cc508cd0818c85b8b8a1ab4ceeef8d981c8956a633610611565b6106075760405162461bcd60e51b815260206004820152601a60248201527f4d4f443a206d7573742068617665204d494e5445525f524f4c45000000000000604482015260640161048b565b6105518282610b61565b6000918252602082815260408084206001600160a01b0393909316845291905290205460ff1690565b606060058054610364906110ba565b3360009081526002602090815260408083206001600160a01b0386168452909152812054828110156106cb5760405162461bcd60e51b815260206004820152602560248201527f45524332303a2064656372656173656420616c6c6f77616e63652062656c6f77604482015264207a65726f60d81b606482015260840161048b565b6106d83385858403610715565b5060019392505050565b60006103f4338484610839565b60008281526020819052604090206001015461070b8133610a14565b6104d28383610afc565b6001600160a01b0383166107775760405162461bcd60e51b8152602060048201526024808201527f45524332303a20617070726f76652066726f6d20746865207a65726f206164646044820152637265737360e01b606482015260840161048b565b6001600160a01b0382166107d85760405162461bcd60e51b815260206004820152602260248201527f45524332303a20617070726f766520746f20746865207a65726f206164647265604482015261737360f01b606482015260840161048b565b6001600160a01b0383811660008181526002602090815260408083209487168084529482529182902085905590518481527f8c5be1e5ebec7d5bd14f71427d1e84f3dd0314c0f7b2291e5b200ac8c7c3b925910160405180910390a3505050565b6001600160a01b03831661089d5760405162461bcd60e51b815260206004820152602560248201527f45524332303a207472616e736665722066726f6d20746865207a65726f206164604482015264647265737360d81b606482015260840161048b565b6001600160a01b0382166108ff5760405162461bcd60e51b815260206004820152602360248201527f45524332303a207472616e7366657220746f20746865207a65726f206164647260448201526265737360e81b606482015260840161048b565b61090a838383610c4c565b6001600160a01b038316600090815260016020526040902054818110156109825760405162461bcd60e51b815260206004820152602660248201527f45524332303a207472616e7366657220616d6f756e7420657863656564732062604482015265616c616e636560d01b606482015260840161048b565b6001600160a01b038085166000908152600160205260408082208585039055918516815290812080548492906109b9908490611040565b92505081905550826001600160a01b0316846001600160a01b03167fddf252ad1be2c89b69c2b068fc378daa952ba7f163c4a11628f55a4df523b3ef84604051610a0591815260200190565b60405180910390a35b50505050565b610a1e8282610611565b61055157610a36816001600160a01b03166014610cbf565b610a41836020610cbf565b604051602001610a52929190610f98565b60408051601f198184030181529082905262461bcd60e51b825261048b9160040161100d565b610a828282610611565b610551576000828152602081815260408083206001600160a01b03851684529091529020805460ff19166001179055610ab83390565b6001600160a01b0316816001600160a01b0316837f2f8788117e7eff1d82e926ec794901d17c78024a50270940304540a733656f0d60405160405180910390a45050565b610b068282610611565b15610551576000828152602081815260408083206001600160a01b0385168085529252808320805460ff1916905551339285917ff6391f5c32d9c69d2a47ea670b442974b53935d1edc7fd64eb21e047a839171b9190a45050565b6001600160a01b038216610bb75760405162461bcd60e51b815260206004820152601f60248201527f45524332303a206d696e7420746f20746865207a65726f206164647265737300604482015260640161048b565b610bc360008383610c4c565b8060036000828254610bd59190611040565b90915550506001600160a01b03821660009081526001602052604081208054839290610c02908490611040565b90915550506040518181526001600160a01b038316906000907fddf252ad1be2c89b69c2b068fc378daa952ba7f163c4a11628f55a4df523b3ef9060200160405180910390a35050565b6001600160a01b0383166104d25760065481610c6760035490565b610c719190611040565b11156104d25760405162461bcd60e51b815260206004820152601960248201527f45524332304361707065643a2063617020657863656564656400000000000000604482015260640161048b565b60606000610cce836002611058565b610cd9906002611040565b67ffffffffffffffff811115610cf157610cf1611121565b6040519080825280601f01601f191660200182016040528015610d1b576020820181803683370190505b509050600360fc1b81600081518110610d3657610d3661110b565b60200101906001600160f81b031916908160001a905350600f60fb1b81600181518110610d6557610d6561110b565b60200101906001600160f81b031916908160001a9053506000610d89846002611058565b610d94906001611040565b90505b6001811115610e0c576f181899199a1a9b1b9c1cb0b131b232b360811b85600f1660108110610dc857610dc861110b565b1a60f81b828281518110610dde57610dde61110b565b60200101906001600160f81b031916908160001a90535060049490941c93610e05816110a3565b9050610d97565b508315610e5b5760405162461bcd60e51b815260206004820181905260248201527f537472696e67733a20686578206c656e67746820696e73756666696369656e74604482015260640161048b565b9392505050565b80356001600160a01b0381168114610e7957600080fd5b919050565b600060208284031215610e9057600080fd5b610e5b82610e62565b60008060408385031215610eac57600080fd5b610eb583610e62565b9150610ec360208401610e62565b90509250929050565b600080600060608486031215610ee157600080fd5b610eea84610e62565b9250610ef860208501610e62565b9150604084013590509250925092565b60008060408385031215610f1b57600080fd5b610f2483610e62565b946020939093013593505050565b600060208284031215610f4457600080fd5b5035919050565b60008060408385031215610f5e57600080fd5b82359150610ec360208401610e62565b600060208284031215610f8057600080fd5b81356001600160e01b031981168114610e5b57600080fd5b7f416363657373436f6e74726f6c3a206163636f756e7420000000000000000000815260008351610fd0816017850160208801611077565b7001034b99036b4b9b9b4b733903937b6329607d1b6017918401918201528351611001816028840160208801611077565b01602801949350505050565b602081526000825180602084015261102c816040850160208701611077565b601f01601f19169190910160400192915050565b60008219821115611053576110536110f5565b500190565b6000816000190483118215151615611072576110726110f5565b500290565b60005b8381101561109257818101518382015260200161107a565b83811115610a0e5750506000910152565b6000816110b2576110b26110f5565b506000190190565b600181811c908216806110ce57607f821691505b602082108114156110ef57634e487b7160e01b600052602260045260246000fd5b50919050565b634e487b7160e01b600052601160045260246000fd5b634e487b7160e01b600052603260045260246000fd5b634e487b7160e01b600052604160045260246000fdfea2646970667358221220b15ea9372a660df02bf0ba342c6db90ec6ce93c7165f96b922fd9a0dccba3fc264736f6c63430008070033",
    "sourcePath": "/Users/drake/Documents/DEV/LABChack2021/TOKEN.sol",
    "compiler": {
        "name": "solc",
        "version": "0.8.7+commit.e28d00a7"
    },
    "functionHashes": {
        "DEFAULT_ADMIN_ROLE()": "a217fddf",
        "MINTER_ROLE()": "d5391393",
        "allowance(address,address)": "dd62ed3e",
        "approve(address,uint256)": "095ea7b3",
        "balanceOf(address)": "70a08231",
        "cap()": "355274ea",
        "decimals()": "313ce567",
        "decreaseAllowance(address,uint256)": "a457c2d7",
        "getRoleAdmin(bytes32)": "248a9ca3",
        "grantRole(bytes32,address)": "2f2ff15d",
        "hasRole(bytes32,address)": "91d14854",
        "increaseAllowance(address,uint256)": "39509351",
        "mint(address,uint256)": "40c10f19",
        "name()": "06fdde03",
        "renounceRole(bytes32,address)": "36568abe",
        "revokeRole(bytes32,address)": "d547741f",
        "supportsInterface(bytes4)": "01ffc9a7",
        "symbol()": "95d89b41",
        "totalSupply()": "18160ddd",
        "transfer(address,uint256)": "a9059cbb",
        "transferFrom(address,address,uint256)": "23b872dd"
    },
    "gasEstimates": {
        "creation": {
            "codeDepositCost": "892200",
            "executionCost": "infinite",
            "totalCost": "infinite"
        },
        "external": {
            "DEFAULT_ADMIN_ROLE()": "217",
            "MINTER_ROLE()": "283",
            "allowance(address,address)": "infinite",
            "approve(address,uint256)": "24653",
            "balanceOf(address)": "2604",
            "cap()": "2381",
            "decimals()": "244",
            "decreaseAllowance(address,uint256)": "26921",
            "getRoleAdmin(bytes32)": "2470",
            "grantRole(bytes32,address)": "infinite",
            "hasRole(bytes32,address)": "2740",
            "increaseAllowance(address,uint256)": "26946",
            "mint(address,uint256)": "infinite",
            "name()": "infinite",
            "renounceRole(bytes32,address)": "29106",
            "revokeRole(bytes32,address)": "infinite",
            "supportsInterface(bytes4)": "450",
            "symbol()": "infinite",
            "totalSupply()": "2371",
            "transfer(address,uint256)": "infinite",
            "transferFrom(address,address,uint256)": "infinite"
        },
        "internal": {
            "_beforeTokenTransfer(address,address,uint256)": "infinite"
        }
    }
}