{
    "contractName": "VOTE",
    "abi": [
        {
            "anonymous": false,
            "inputs": [
                {
                    "indexed": true,
                    "internalType": "bytes32",
                    "name": "role",
                    "type": "bytes32"
                },
                {
                    "indexed": true,
                    "internalType": "bytes32",
                    "name": "previousAdminRole",
                    "type": "bytes32"
                },
                {
                    "indexed": true,
                    "internalType": "bytes32",
                    "name": "newAdminRole",
                    "type": "bytes32"
                }
            ],
            "name": "RoleAdminChanged",
            "type": "event"
        },
        {
            "anonymous": false,
            "inputs": [
                {
                    "indexed": true,
                    "internalType": "bytes32",
                    "name": "role",
                    "type": "bytes32"
                },
                {
                    "indexed": true,
                    "internalType": "address",
                    "name": "account",
                    "type": "address"
                },
                {
                    "indexed": true,
                    "internalType": "address",
                    "name": "sender",
                    "type": "address"
                }
            ],
            "name": "RoleGranted",
            "type": "event"
        },
        {
            "anonymous": false,
            "inputs": [
                {
                    "indexed": true,
                    "internalType": "bytes32",
                    "name": "role",
                    "type": "bytes32"
                },
                {
                    "indexed": true,
                    "internalType": "address",
                    "name": "account",
                    "type": "address"
                },
                {
                    "indexed": true,
                    "internalType": "address",
                    "name": "sender",
                    "type": "address"
                }
            ],
            "name": "RoleRevoked",
            "type": "event"
        },
        {
            "inputs": [],
            "name": "CONTRACT_ADMIN_ROLE",
            "outputs": [
                {
                    "internalType": "bytes32",
                    "name": "",
                    "type": "bytes32"
                }
            ],
            "stateMutability": "view",
            "type": "function"
        },
        {
            "inputs": [],
            "name": "DEFAULT_ADMIN_ROLE",
            "outputs": [
                {
                    "internalType": "bytes32",
                    "name": "",
                    "type": "bytes32"
                }
            ],
            "stateMutability": "view",
            "type": "function"
        },
        {
            "inputs": [],
            "name": "airdrop",
            "outputs": [
                {
                    "internalType": "uint256",
                    "name": "",
                    "type": "uint256"
                }
            ],
            "stateMutability": "view",
            "type": "function"
        },
        {
            "inputs": [
                {
                    "internalType": "uint256",
                    "name": "_proposalNum",
                    "type": "uint256"
                }
            ],
            "name": "claimReward",
            "outputs": [],
            "stateMutability": "nonpayable",
            "type": "function"
        },
        {
            "inputs": [
                {
                    "internalType": "bytes32",
                    "name": "_proposal",
                    "type": "bytes32"
                }
            ],
            "name": "createProposal",
            "outputs": [],
            "stateMutability": "nonpayable",
            "type": "function"
        },
        {
            "inputs": [
                {
                    "internalType": "uint256",
                    "name": "_proposalNum",
                    "type": "uint256"
                }
            ],
            "name": "endProposal",
            "outputs": [],
            "stateMutability": "nonpayable",
            "type": "function"
        },
        {
            "inputs": [],
            "name": "getDID",
            "outputs": [],
            "stateMutability": "nonpayable",
            "type": "function"
        },
        {
            "inputs": [
                {
                    "internalType": "bytes32",
                    "name": "role",
                    "type": "bytes32"
                }
            ],
            "name": "getRoleAdmin",
            "outputs": [
                {
                    "internalType": "bytes32",
                    "name": "",
                    "type": "bytes32"
                }
            ],
            "stateMutability": "view",
            "type": "function"
        },
        {
            "inputs": [
                {
                    "internalType": "bytes32",
                    "name": "role",
                    "type": "bytes32"
                },
                {
                    "internalType": "address",
                    "name": "account",
                    "type": "address"
                }
            ],
            "name": "grantRole",
            "outputs": [],
            "stateMutability": "nonpayable",
            "type": "function"
        },
        {
            "inputs": [
                {
                    "internalType": "bytes32",
                    "name": "role",
                    "type": "bytes32"
                },
                {
                    "internalType": "address",
                    "name": "account",
                    "type": "address"
                }
            ],
            "name": "hasRole",
            "outputs": [
                {
                    "internalType": "bool",
                    "name": "",
                    "type": "bool"
                }
            ],
            "stateMutability": "view",
            "type": "function"
        },
        {
            "inputs": [],
            "name": "proposalNum",
            "outputs": [
                {
                    "internalType": "uint256",
                    "name": "",
                    "type": "uint256"
                }
            ],
            "stateMutability": "view",
            "type": "function"
        },
        {
            "inputs": [
                {
                    "internalType": "uint256",
                    "name": "",
                    "type": "uint256"
                }
            ],
            "name": "proposals",
            "outputs": [
                {
                    "internalType": "uint256",
                    "name": "reward",
                    "type": "uint256"
                },
                {
                    "internalType": "uint256",
                    "name": "yes",
                    "type": "uint256"
                },
                {
                    "internalType": "uint256",
                    "name": "no",
                    "type": "uint256"
                },
                {
                    "internalType": "bytes32",
                    "name": "mutableStorage",
                    "type": "bytes32"
                },
                {
                    "internalType": "uint256",
                    "name": "expiry",
                    "type": "uint256"
                },
                {
                    "internalType": "uint32",
                    "name": "participantCount",
                    "type": "uint32"
                }
            ],
            "stateMutability": "view",
            "type": "function"
        },
        {
            "inputs": [
                {
                    "internalType": "bytes32",
                    "name": "role",
                    "type": "bytes32"
                },
                {
                    "internalType": "address",
                    "name": "account",
                    "type": "address"
                }
            ],
            "name": "renounceRole",
            "outputs": [],
            "stateMutability": "nonpayable",
            "type": "function"
        },
        {
            "inputs": [
                {
                    "internalType": "bytes32",
                    "name": "role",
                    "type": "bytes32"
                },
                {
                    "internalType": "address",
                    "name": "account",
                    "type": "address"
                }
            ],
            "name": "revokeRole",
            "outputs": [],
            "stateMutability": "nonpayable",
            "type": "function"
        },
        {
            "inputs": [
                {
                    "internalType": "address",
                    "name": "_DIDaddress",
                    "type": "address"
                }
            ],
            "name": "setDIDcontract",
            "outputs": [],
            "stateMutability": "nonpayable",
            "type": "function"
        },
        {
            "inputs": [
                {
                    "internalType": "address",
                    "name": "_TOKENaddress",
                    "type": "address"
                }
            ],
            "name": "setTOKENcontract",
            "outputs": [],
            "stateMutability": "nonpayable",
            "type": "function"
        },
        {
            "inputs": [
                {
                    "internalType": "bytes4",
                    "name": "interfaceId",
                    "type": "bytes4"
                }
            ],
            "name": "supportsInterface",
            "outputs": [
                {
                    "internalType": "bool",
                    "name": "",
                    "type": "bool"
                }
            ],
            "stateMutability": "view",
            "type": "function"
        },
        {
            "inputs": [],
            "name": "tokenId",
            "outputs": [
                {
                    "internalType": "uint256",
                    "name": "",
                    "type": "uint256"
                }
            ],
            "stateMutability": "view",
            "type": "function"
        },
        {
            "inputs": [
                {
                    "internalType": "uint256",
                    "name": "_proposalNum",
                    "type": "uint256"
                },
                {
                    "internalType": "uint8",
                    "name": "_vote",
                    "type": "uint8"
                }
            ],
            "name": "voteOn",
            "outputs": [],
            "stateMutability": "nonpayable",
            "type": "function"
        },
        {
            "inputs": [],
            "name": "weekInSeconds",
            "outputs": [
                {
                    "internalType": "uint256",
                    "name": "",
                    "type": "uint256"
                }
            ],
            "stateMutability": "view",
            "type": "function"
        }
    ],
    "bytecode": "608060405261271060065562093a8060075534801561001d57600080fd5b506113af8061002d6000396000f3fe608060405234801561001057600080fd5b506004361061012c5760003560e01c80633884d635116100ad578063a217fddf11610071578063a217fddf146102e5578063ae169a50146102ed578063bc9c2d5514610300578063c525133614610308578063d547741f1461031157600080fd5b80633884d6351461029a5780633cf7e424146102a357806391d14854146102b65780639f2f1942146102c9578063a07bd400146102d257600080fd5b80632542bf06116100f45780632542bf06146102395780632a1701c71461024e5780632ea4da0f146102615780632f2ff15d1461027457806336568abe1461028757600080fd5b8063013cf08b1461013157806301ffc9a7146101b557806317d70f7c146101d85780631da03312146101ef578063248a9ca314610216575b600080fd5b61017d61013f3660046110d1565b600360208190526000918252604090912080546001820154600283015493830154600484015460059094015492949193919290919063ffffffff1686565b604080519687526020870195909552938501929092526060840152608083015263ffffffff1660a082015260c0015b60405180910390f35b6101c86101c3366004611116565b610324565b60405190151581526020016101ac565b6101e160045481565b6040519081526020016101ac565b6101e17f2ce8d04a9c35987429af538825cd2438cc5c5bb5dc427955f84daaa3ea10501681565b6101e16102243660046110d1565b60009081526020819052604090206001015490565b61024c6102473660046110d1565b61035b565b005b61024c61025c3660046110b6565b61047f565b61024c61026f366004611159565b61052f565b61024c6102823660046110ea565b610896565b61024c6102953660046110ea565b6108c1565b6101e160065481565b61024c6102b13660046110b6565b61093b565b6101c86102c43660046110ea565b6109ed565b6101e160055481565b61024c6102e03660046110d1565b610a16565b6101e1600081565b61024c6102fb3660046110d1565b610ad2565b61024c610c71565b6101e160075481565b61024c61031f3660046110ea565b610d84565b60006001600160e01b03198216637965db0b60e01b148061035557506301ffc9a760e01b6001600160e01b03198316145b92915050565b60006007544261036b919061127e565b600b549091506001600160a01b03166370a08231336040516001600160e01b031960e084901b1681526001600160a01b039091166004820152602401602060405180830381600087803b1580156103c157600080fd5b505af11580156103d5573d6000803e3d6000fd5b505050506040513d601f19601f820116820180604052508101906103f99190611140565b6001146104405760405162461bcd60e51b815260206004820152601060248201526f18d85b1b195c88085a1bdb190811125160821b60448201526064015b60405180910390fd5b60058054906000610450836112f8565b909155505060058054600090815260036020819052604080832090910194909455905481529190912060040155565b6104a97f2ce8d04a9c35987429af538825cd2438cc5c5bb5dc427955f84daaa3ea105016336109ed565b6104c55760405162461bcd60e51b815260040161043790611237565b6001600160a01b03811661050d5760405162461bcd60e51b815260206004820152600f60248201526e04449442061646472657373203d203608c1b6044820152606401610437565b600b80546001600160a01b0319166001600160a01b0392909216919091179055565b600b546001600160a01b03166370a08231336040516001600160e01b031960e084901b1681526001600160a01b039091166004820152602401602060405180830381600087803b15801561058257600080fd5b505af1158015610596573d6000803e3d6000fd5b505050506040513d601f19601f820116820180604052508101906105ba9190611140565b6001146106015760405162461bcd60e51b8152602060048201526015602482015274155cd95c88191bd95cc81b9bdd081a1bdb19081251605a1b6044820152606401610437565b33600090815260016020908152604080832085845290915290205460ff16156106615760405162461bcd60e51b8152602060048201526012602482015271155cd95c88185b1c9958591e481d9bdd195960721b6044820152606401610437565b8060ff1660011480610674575060ff8116155b6106af5760405162461bcd60e51b815260206004820152600c60248201526b496e76616c696420766f746560a01b6044820152606401610437565b3360009081526001602081815260408084208685528252808420805460ff1916909317909255600390528120600501805463ffffffff16916106f083611313565b91906101000a81548163ffffffff021916908363ffffffff160217905550508060ff16600114156107d8576009546001600160a01b03166370a08231336040516001600160e01b031960e084901b1681526001600160a01b039091166004820152602401602060405180830381600087803b15801561076e57600080fd5b505af1158015610782573d6000803e3d6000fd5b505050506040513d601f19601f820116820180604052508101906107a69190611140565b6000838152600360205260409020600101546107c2919061127e565b6000838152600360205260409020600101555050565b6009546001600160a01b03166370a08231336040516001600160e01b031960e084901b1681526001600160a01b039091166004820152602401602060405180830381600087803b15801561082b57600080fd5b505af115801561083f573d6000803e3d6000fd5b505050506040513d601f19601f820116820180604052508101906108639190611140565b60008381526003602052604090206002015461087f919061127e565b6000838152600360205260409020600201555b5050565b6000828152602081905260409020600101546108b28133610daa565b6108bc8383610e0e565b505050565b6001600160a01b03811633146109315760405162461bcd60e51b815260206004820152602f60248201527f416363657373436f6e74726f6c3a2063616e206f6e6c792072656e6f756e636560448201526e103937b632b9903337b91039b2b63360891b6064820152608401610437565b6108928282610e92565b6109657f2ce8d04a9c35987429af538825cd2438cc5c5bb5dc427955f84daaa3ea105016336109ed565b6109815760405162461bcd60e51b815260040161043790611237565b6001600160a01b0381166109cb5760405162461bcd60e51b81526020600482015260116024820152700544f4b454e2061646472657373203d203607c1b6044820152606401610437565b600980546001600160a01b0319166001600160a01b0392909216919091179055565b6000918252602082815260408084206001600160a01b0393909316845291905290205460ff1690565b600081815260036020526040812060040154421115610a6b5760405162461bcd60e51b8152602060048201526011602482015270141c9bdc1bdcd85b0808595e1c1a5c9959607a1b6044820152606401610437565b60008281526003602052604090205415610ac05760405162461bcd60e51b8152602060048201526016602482015275141c9bdc1bdcd85b08185b1c9958591e48195b99195960521b6044820152606401610437565b60009182526003602052604090912055565b3360009081526001602081815260408084208585529091529091205460ff1614610b2c5760405162461bcd60e51b815260206004820152600b60248201526a155cd95c88085d9bdd195960aa1b6044820152606401610437565b600081815260036020526040902054610b795760405162461bcd60e51b815260206004820152600f60248201526e141c9bdc1bdcd85b0808595b991959608a1b6044820152606401610437565b33600090815260026020908152604080832084845290915290205460ff1615610bdb5760405162461bcd60e51b8152602060048201526014602482015273155cd95c88185b1c9958591e4818db185a5b595960621b6044820152606401610437565b3360008181526002602090815260408083208584528252808320805460ff1916600117905560095460039092528083205481516340c10f1960e01b815260048101959095526024850152516001600160a01b0391909116926340c10f1992604480830193919282900301818387803b158015610c5657600080fd5b505af1158015610c6a573d6000803e3d6000fd5b5050505050565b60048054906000610c81836112f8565b9091555050600b5460048054604051632d68d92760e21b8152339281019290925260248201526001600160a01b039091169063b5a3649c90604401602060405180830381600087803b158015610cd657600080fd5b505af1158015610cea573d6000803e3d6000fd5b505050506040513d601f19601f82011682018060405250810190610d0e9190611140565b506009546001600160a01b03166340c10f19336006546040516001600160e01b031960e085901b1681526001600160a01b0390921660048301526024820152604401600060405180830381600087803b158015610d6a57600080fd5b505af1158015610d7e573d6000803e3d6000fd5b50505050565b600082815260208190526040902060010154610da08133610daa565b6108bc8383610e92565b610db482826109ed565b61089257610dcc816001600160a01b03166014610ef7565b610dd7836020610ef7565b604051602001610de892919061118f565b60408051601f198184030181529082905262461bcd60e51b825261043791600401611204565b610e1882826109ed565b610892576000828152602081815260408083206001600160a01b03851684529091529020805460ff19166001179055610e4e3390565b6001600160a01b0316816001600160a01b0316837f2f8788117e7eff1d82e926ec794901d17c78024a50270940304540a733656f0d60405160405180910390a45050565b610e9c82826109ed565b15610892576000828152602081815260408083206001600160a01b0385168085529252808320805460ff1916905551339285917ff6391f5c32d9c69d2a47ea670b442974b53935d1edc7fd64eb21e047a839171b9190a45050565b60606000610f06836002611296565b610f1190600261127e565b67ffffffffffffffff811115610f2957610f29611363565b6040519080825280601f01601f191660200182016040528015610f53576020820181803683370190505b509050600360fc1b81600081518110610f6e57610f6e61134d565b60200101906001600160f81b031916908160001a905350600f60fb1b81600181518110610f9d57610f9d61134d565b60200101906001600160f81b031916908160001a9053506000610fc1846002611296565b610fcc90600161127e565b90505b6001811115611044576f181899199a1a9b1b9c1cb0b131b232b360811b85600f16601081106110005761100061134d565b1a60f81b8282815181106110165761101661134d565b60200101906001600160f81b031916908160001a90535060049490941c9361103d816112e1565b9050610fcf565b5083156110935760405162461bcd60e51b815260206004820181905260248201527f537472696e67733a20686578206c656e67746820696e73756666696369656e746044820152606401610437565b9392505050565b80356001600160a01b03811681146110b157600080fd5b919050565b6000602082840312156110c857600080fd5b6110938261109a565b6000602082840312156110e357600080fd5b5035919050565b600080604083850312156110fd57600080fd5b8235915061110d6020840161109a565b90509250929050565b60006020828403121561112857600080fd5b81356001600160e01b03198116811461109357600080fd5b60006020828403121561115257600080fd5b5051919050565b6000806040838503121561116c57600080fd5b82359150602083013560ff8116811461118457600080fd5b809150509250929050565b7f416363657373436f6e74726f6c3a206163636f756e74200000000000000000008152600083516111c78160178501602088016112b5565b7001034b99036b4b9b9b4b733903937b6329607d1b60179184019182015283516111f88160288401602088016112b5565b01602801949350505050565b60208152600082518060208401526112238160408501602087016112b5565b601f01601f19169190910160400192915050565b60208082526027908201527f423a4d4f443a2d4941444d2043616c6c65722021434f4e54524143545f41444d604082015266494e5f524f4c4560c81b606082015260800190565b6000821982111561129157611291611337565b500190565b60008160001904831182151516156112b0576112b0611337565b500290565b60005b838110156112d05781810151838201526020016112b8565b83811115610d7e5750506000910152565b6000816112f0576112f0611337565b506000190190565b600060001982141561130c5761130c611337565b5060010190565b600063ffffffff8083168181141561132d5761132d611337565b6001019392505050565b634e487b7160e01b600052601160045260246000fd5b634e487b7160e01b600052603260045260246000fd5b634e487b7160e01b600052604160045260246000fdfea2646970667358221220ffb0a4e8f7644b1d96a67f3926fd0d2738058f90de9e97c1ed5130de9452b2b264736f6c63430008070033",
    "sourcePath": "/Users/drake/Documents/DEV/LABChackaton2021/VOTE.sol",
    "compiler": {
        "name": "solc",
        "version": "0.8.7+commit.e28d00a7"
    },
    "functionHashes": {
        "CONTRACT_ADMIN_ROLE()": "1da03312",
        "DEFAULT_ADMIN_ROLE()": "a217fddf",
        "airdrop()": "3884d635",
        "claimReward(uint256)": "ae169a50",
        "createProposal(bytes32)": "2542bf06",
        "endProposal(uint256)": "a07bd400",
        "getDID()": "bc9c2d55",
        "getRoleAdmin(bytes32)": "248a9ca3",
        "grantRole(bytes32,address)": "2f2ff15d",
        "hasRole(bytes32,address)": "91d14854",
        "proposalNum()": "9f2f1942",
        "proposals(uint256)": "013cf08b",
        "renounceRole(bytes32,address)": "36568abe",
        "revokeRole(bytes32,address)": "d547741f",
        "setDIDcontract(address)": "2a1701c7",
        "setTOKENcontract(address)": "3cf7e424",
        "supportsInterface(bytes4)": "01ffc9a7",
        "tokenId()": "17d70f7c",
        "voteOn(uint256,uint8)": "2ea4da0f",
        "weekInSeconds()": "c5251336"
    },
    "gasEstimates": {
        "creation": {
            "codeDepositCost": "1007800",
            "executionCost": "45259",
            "totalCost": "1053059"
        },
        "external": {
            "CONTRACT_ADMIN_ROLE()": "285",
            "DEFAULT_ADMIN_ROLE()": "217",
            "airdrop()": "2318",
            "claimReward(uint256)": "infinite",
            "createProposal(bytes32)": "infinite",
            "endProposal(uint256)": "9787",
            "getDID()": "infinite",
            "getRoleAdmin(bytes32)": "2559",
            "grantRole(bytes32,address)": "infinite",
            "hasRole(bytes32,address)": "2729",
            "proposalNum()": "2384",
            "proposals(uint256)": "13146",
            "renounceRole(bytes32,address)": "29106",
            "revokeRole(bytes32,address)": "infinite",
            "setDIDcontract(address)": "26965",
            "setTOKENcontract(address)": "26965",
            "supportsInterface(bytes4)": "483",
            "tokenId()": "2363",
            "voteOn(uint256,uint8)": "infinite",
            "weekInSeconds()": "2383"
        }
    }
}